:100000000C942A000C94D1170C94E1170C94F1175E
:100010000C9447000C9447000C9447000C94470044
:100020000C9447000C9447000C94FE130C943B1363
:100030000C9447000C9447000C9447000C94470024
:100040000C9447000C9447000C9447000C94470014
:100050000C94470011241FBECFE5D8E0DEBFCDBF12
:1000600010E0A0E6B0E0ECE3F9E302C005900D92E9
:10007000A839B107D9F710E0A8E9B0E001C01D9296
:10008000A43AB107E1F70E943C1B0C949C1C0C9411
:100090000000EF92FF920F931F937B018C0120E0F1
:1000A00030E040E05FE40E94F50388238CF0C80153
:1000B000B70120E030E040E05FE40E94C1010E940F
:1000C00055049B01AC01205030404040504806C0D0
:1000D000C801B7010E9455049B01AC01B901CA01D6
:1000E0001F910F91FF90EF900895A0E0B0E0EBE733
:1000F000F0E00C94201CDC012B01FA019C91923061
:1001000008F439C1EB018881823008F433C194309E
:1001100069F4843009F02FC111969C91119789815F
:10012000981709F428C1A0E6B0E025C1843009F48D
:1001300021C18230A9F4923009F01DC19A01AD01AC
:1001400088E0EA010990AE01E90109929E0181501F
:10015000C1F7E201898111969C918923818308C1AD
:10016000923009F407C112962D903C901397EB0141
:100170008A819B811496AD90BD90CD90DC901797AD
:10018000EC80FD800E811F819101281B390BB90184
:1001900037FF04C066277727621B730B6032710537
:1001A0000CF061C0121613066CF537014801062EDB
:1001B00004C096948794779467940A94D2F721E0C8
:1001C00030E040E050E004C0220F331F441F551FB1
:1001D0006A95D2F721503040404050402E213F21B7
:1001E00040235123211531054105510521F021E01E
:1001F00030E040E050E079018A01E628F72808293C
:1002000019293CC0232BD1F1260E371E350146019A
:10021000062E04C096948794779467940A94D2F734
:1002200021E030E040E050E004C0220F331F441FC3
:10023000551F6A95D2F721503040404050402A2146
:100240003B214C215D21211531054105510521F04E
:1002500021E030E040E050E059016A01A628B728CB
:10026000C828D9280BC0821593052CF01C01AA249C
:10027000BB24650103C0EE24FF24870111969C91E5
:10028000D20111968C91981709F445C0992339F041
:10029000A80197012A193B094C095D0906C0A6016E
:1002A00095012E193F09400B510B57FD08C01182D3
:1002B0003382228224833583468357831DC081E0A5
:1002C00081833382228288279927DC01821B930B4A
:1002D000A40BB50B84839583A683B7830DC0220F2F
:1002E000331F441F551F24833583468357838281E0
:1002F000938101979383828324813581468157813D
:10030000DA01C9010197A109B1098F5F9F4FAF4F72
:10031000BF4328F30BC0918333822282EA0CFB1C7B
:100320000C1D1D1DE482F5820683178383E0808304
:10033000248135814681578157FF1AC0C901AA27F8
:1003400097FDA095BA2F81709070A070B0705695EF
:10035000479537952795822B932BA42BB52B848318
:100360009583A683B7838281938101969383828349
:10037000DF0101C0D201CD01CDB7DEB7E2E10C94BF
:100380003C1CA0E2B0E0E7ECF1E00C942C1C69838B
:100390007A838B839C832D833E834F835887E9E048
:1003A000EE2EF12CEC0EFD1ECE010196B7010E943F
:1003B0007E058E010F5E1F4FCE010596B8010E948B
:1003C0007E058A8991E089278A8BC701B801AE0131
:1003D000475E5F4F0E9475000E94A904A096E6E068
:1003E0000C94481CA0E2B0E0E8EFF1E00C942C1C67
:1003F00069837A838B839C832D833E834F835887C5
:10040000F9E0EF2EF12CEC0EFD1ECE010196B701A6
:100410000E947E058E010F5E1F4FCE010596B8012A
:100420000E947E05C701B801AE01475E5F4F0E9482
:1004300075000E94A904A096E6E00C94481CA0E276
:10044000B0E0E5E2F2E00C94201C69837A838B83B0
:100450009C832D833E834F835887CE010196BE0136
:10046000675F7F4F0E947E05CE010596BE016F5EDD
:100470007F4F0E947E059985923088F0898982306D
:10048000C8F0943019F4823051F404C0843029F457
:10049000923081F480E690E0C6C0923049F420E0CA
:1004A0009A858A89981321E02A87CE010996BBC0D4
:1004B000823049F420E09A858A89981321E02A8BBA
:1004C000CE014196B0C02D843E844F8458886D88FB
:1004D0007E888F88988CEE24FF248701AA24BB2471
:1004E000650140E050E060E070E0E0E0F0E0C10174
:1004F00081709070892BE9F0E60CF71C081D191D1E
:100500009A01AB012A0D3B1D4C1D5D1D80E090E062
:10051000A0E0B0E0E614F7040805190520F481E036
:1005200090E0A0E0B0E0BA01A901480F591F6A1F8E
:100530007B1FAA0CBB1CCC1CDD1C97FE08C081E0F5
:1005400090E0A0E0B0E0A82AB92ACA2ADB2A3196B6
:10055000E032F10549F0660C771C881C991C569412
:10056000479437942794C3CFFA85EA892B893C892D
:100570008B859C85280F391F2E5F3F4F17C0CA01FE
:1005800081709070892B61F016950795F794E79428
:1005900080E090E0A0E0B0E8E82AF92A0A2B1B2BC3
:1005A00076956795579547952F5F3F4F77FDE7CF36
:1005B0000CC0440F551F661F771F17FD4160EE0CDE
:1005C000FF1C001F111F21503040403090E05907A0
:1005D00090E0690790E4790760F32B8F3C8FDB0193
:1005E000CA018F779070A070B07080349105A1051A
:1005F000B10561F447FD0AC0E114F10401051105DC
:1006000029F0405C5F4F6F4F7F4F40781A8EFE1786
:1006100011F081E08A8F4D8F5E8F6F8F78A383E01A
:10062000898FCE0149960E94A904A096E2E10C941C
:100630003C1CA8E1B0E0EFE1F3E00C94281C6983D6
:100640007A838B839C832D833E834F835887B9E0C5
:10065000EB2EF12CEC0EFD1ECE010196B7010E948F
:100660007E058E010F5E1F4FCE010596B8010E94D8
:100670007E052985223008F47EC03989323010F495
:10068000B8017CC08A859A8989278A87243011F02D
:10069000223031F4231709F06EC060E670E06EC0BE
:1006A000343039F41D861E861F86188A1C861B86E8
:1006B00004C0323021F484E08987B7015FC02B8504
:1006C0003C858B899C89281B390B3C872B87ED84C3
:1006D000FE840F851889AD88BE88CF88D88CEA142F
:1006E000FB040C051D0540F4EE0CFF1C001F111F40
:1006F000215030403C872B8720E030E040E050E044
:1007000080E090E0A0E0B0E460E070E0EA14FB0478
:100710000C051D0540F0282B392B4A2B5B2BEA18C2
:10072000FB080C091D09B695A79597958795EE0CC2
:10073000FF1C001F111F6F5F7F4F6F31710531F775
:10074000DA01C9018F779070A070B0708034910584
:10075000A105B10561F427FD0AC0E114F10401050A
:10076000110529F0205C3F4F4F4F5F4F20782D87B8
:100770003E874F87588BBE01675F7F4FCB010E943A
:10078000A9046896EAE00C94441CA8E1B0E0EBEC04
:10079000F3E00C942C1C69837A838B839C832D83D8
:1007A0003E834F83588789E0E82EF12CEC0EFD1E26
:1007B000CE010196B7010E947E058E010F5E1F4F8C
:1007C000CE010596B8010E947E058985823040F0F1
:1007D0008989823028F0C701B8010E94F60501C05E
:1007E0008FEF6896E6E00C94481CA8E1B0E0EBEFD0
:1007F000F3E00C942C1C69837A838B839C832D8378
:100800003E834F83588789E0E82EF12CEC0EFD1EC5
:10081000CE010196B7010E947E058E010F5E1F4F2B
:10082000CE010596B8010E947E058985823040F090
:100830008989823028F0C701B8010E94F60501C0FD
:100840008FEF6896E6E00C94481CA8E1B0E0EBE27C
:10085000F4E00C942C1C69837A838B839C832D8316
:100860003E834F83588789E0E82EF12CEC0EFD1E65
:10087000CE010196B7010E947E058E010F5E1F4FCB
:10088000CE010596B8010E947E058985823040F030
:100890008989823028F0C701B8010E94F60501C09D
:1008A00081E06896E6E00C94481CACE0B0E0EBE533
:1008B000F4E00C94301C69837A838B839C83CE0193
:1008C0000196BE016B5F7F4F0E947E058D81823055
:1008D00061F1823050F1843021F48E81882351F10E
:1008E0002EC02F81388537FD20C06E812F31310514
:1008F0001CF06623F9F023C08EE190E0821B930B7D
:1009000029853A854B855C8504C056954795379572
:1009100027958A95D2F76623B1F05095409530958A
:1009200021953F4F4F4F5F4F0EC020E030E040E039
:1009300050E009C02FEF3FEF4FEF5FE704C020E02A
:1009400030E040E050E8B901CA012C96E2E00C9496
:100950004C1CDF92EF92FF920F931F93FC01E480F7
:10096000F58006811781D1808081823048F480E053
:1009700090E0A0E1B0E0E82AF92A0A2B1B2BA5C0E1
:10098000843009F49FC0823021F4EE24FF248701D3
:1009900005C0E114F1040105110519F4E0E0F0E0EF
:1009A00096C0628173819FEF623879070CF05BC05B
:1009B00022E83FEF261B370B2A3131052CF020E0CF
:1009C00030E040E050E02AC0B801A701022E04C088
:1009D00076956795579547950A94D2F781E090E010
:1009E000A0E0B0E004C0880F991FAA1FBB1F2A9582
:1009F000D2F70197A109B1098E219F21A023B1232C
:100A00000097A105B10521F081E090E0A0E0B0E001
:100A10009A01AB01282B392B4A2B5B2BDA01C90138
:100A20008F779070A070B07080349105A105B105EA
:100A300039F427FF09C0205C3F4F4F4F5F4F04C080
:100A4000215C3F4F4F4F5F4FE0E0F0E02030A0E0EF
:100A50003A07A0E04A07A0E45A0710F0E1E0F0E00E
:100A600079018A0127C06038710564F5FB01E158FE
:100A7000FF4FD801C7018F779070A070B07080349D
:100A80009105A105B10539F4E7FE0DC080E490E0C1
:100A9000A0E0B0E004C08FE390E0A0E0B0E0E80E9A
:100AA000F91E0A1F1B1F17FF05C016950795F7941F
:100AB000E794319687E016950795F794E7948A9521
:100AC000D1F705C0EE24FF248701EFEFF0E06E2F91
:100AD000679566276795902F9F77D794DD24D794E5
:100AE0008E2F8695492F462B582F5D29B701CA01B5
:100AF0001F910F91FF90EF90DF900895FC01DB01B3
:100B0000408151812281622F6F7770E0221F22275E
:100B1000221F9381892F880F822B282F30E0991F65
:100B20009927991F11969C93119721153105A9F5C5
:100B3000411551056105710511F482E037C082E865
:100B40009FEF13969C938E9312979A01AB0167E0E7
:100B5000220F331F441F551F6A95D1F783E08C93F2
:100B60000DC0220F331F441F551F12968D919C916B
:100B70001397019713969C938E931297203080E0E1
:100B8000380780E0480780E4580758F314962D93FF
:100B90003D934D935C93179708952F3F310579F45A
:100BA000411551056105710519F484E08C93089590
:100BB00064FF03C081E08C9312C01C9210C02F57B9
:100BC000304013963C932E93129783E08C9387E0EA
:100BD000440F551F661F771F8A95D1F770641496CE
:100BE0004D935D936D937C93179708951F93DC014C
:100BF000FB019C91923008F447C08081823008F458
:100C000043C0943051F411961C91843099F5818140
:100C1000682F70E0611B71093FC0843021F0923071
:100C200031F48230B9F18181882389F12DC0119688
:100C30001C9111978230F1F081811817D9F4129626
:100C40002D913C911397828193818217930794F0A1
:100C500028173907BCF014968D919D910D90BC9189
:100C6000A02D2481358146815781281739074A07ED
:100C70005B0718F4112341F00AC082179307A407F9
:100C8000B50740F4112319F061E070E005C06FEF83
:100C90007FEF02C060E070E0CB011F910895DF9309
:100CA000CF9300D0CDB7DEB783E390E09A838983FA
:100CB000E0E4F0E08981882F90E0892F990F990B6B
:100CC0008083E9E2F0E089818083A0E4B0E0E0E4A1
:100CD000F0E080818F7E8C93A0E4B0E0E0E4F0E06F
:100CE00080818F7D8C93A0E4B0E0E0E4F0E080812F
:100CF00082608C93A0E4B0E0E0E4F0E08081846066
:100D00008C93AAE2B0E0EAE2F0E080818B7F8C93E2
:100D1000A0E4B0E0E0E4F0E0808180648C93AAE29B
:100D2000B0E0EAE2F0E0808188608C93AAE2B0E073
:100D3000EAE2F0E0808180618C93A0E4B0E0E0E43E
:100D4000F0E0808188608C930F900F90CF91DF91BD
:100D50000895DF93CF930F92CDB7DEB78983EBE28F
:100D6000F0E08081829586958770882F90E0817071
:100D700090700097A1F3ECE2F0E0898180830F90FE
:100D8000CF91DF910895DF93CF93CDB7DEB7EBE23C
:100D9000F0E080818823DCF7ECE2F0E08081CF9105
:100DA000DF910895DF93CF93CDB7DEB7AAE2B0E02D
:100DB000EAE2F0E08081877F8C93CF91DF91089504
:100DC000DF93CF93CDB7DEB7AAE2B0E0EAE2F0E07E
:100DD000808188608C93CF91DF910895DF93CF93CA
:100DE000CDB7DEB7A3E5B0E0E3E5F0E08081806455
:100DF0008C93A3E5B0E0E3E5F0E0808188608C931C
:100E0000A3E5B0E0E3E5F0E0808180618C93A3E5A9
:100E1000B0E0E3E5F0E0808180628C93A3E5B0E090
:100E2000E3E5F0E0808181608C93A3E5B0E0E3E549
:100E3000F0E080818D7F8C93A3E5B0E0E3E5F0E006
:100E400080818B7F8C93CF91DF910895DF93CF9337
:100E5000CDB7DEB7E3E5F0E089E68083A7E3B0E055
:100E6000E7E3F0E0808188608C93CF91DF91089573
:100E7000DF93CF9300D0CDB7DEB79A838983ECE5BB
:100E8000F0E0898180830F900F90CF91DF910895DA
:100E9000DF93CF93CDB7DEB7EFE4F0E01082EEE45E
:100EA000F0E01082AFE4B0E0EFE4F0E08081836A2C
:100EB0008C93AEE4B0E0EEE4F0E0808189608C9346
:100EC000A1E3B0E0E1E3F0E0808180638C93CF9117
:100ED000DF910895DF93CF9300D0CDB7DEB79A832B
:100EE0008983EBE4F0E089819A81892F99278083B7
:100EF000EAE4F0E0898180830F900F90CF91DF9139
:100F00000895DF93CF9300D0CDB7DEB79A8389835E
:100F1000E9E4F0E089819A81892F99278083E8E4C8
:100F2000F0E0898180830F900F90CF91DF91089539
:100F3000DF93CF93CDB7DEB7A5E5B0E0E5E5F0E010
:100F400080818D7F8C93A5E5B0E0E5E5F0E08081C0
:100F500081608C93ABE5B0E0EBE5F0E080818064EC
:100F60008C93CF91DF910895DF93CF93CDB7DEB708
:100F7000A5E5B0E0E5E5F0E08081877F8C93A5E50D
:100F8000B0E0E5E5F0E0808184608C93CF91DF9163
:100F90000895DF93CF93CDB7DEB7A4E5B0E0E4E5E5
:100FA000F0E080818F7B8C93CF91DF910895DF9368
:100FB000CF93CDB7DEB7AFE5B0E0EFE5F0E08081ED
:100FC00080688C93CF91DF910895DF93CF93CDB755
:100FD000DEB727970FB6F894DEBF0FBECDBF89836B
:100FE0006A834B838B81882309F06FC08981282F06
:100FF00030E03F832E838E819F818130910549F1BE
:101000002E813F81223031052CF48E819F81009703
:1010100061F0D2C02E813F812230310571F18E8185
:101020009F8183309105E9F1C7C0AAE3B0E0EAE30C
:10103000F0E08081482F8A81282F30E081E090E025
:10104000022E02C0880F991F0A94E2F7842B8C931A
:10105000B3C0A7E3B0E0E7E3F0E08081482F8A81E6
:10106000282F30E081E090E0022E02C0880F991F07
:101070000A94E2F7842B8C939FC0A4E3B0E0E4E3EE
:10108000F0E08081482F8A81282F30E081E090E0D5
:10109000022E02C0880F991F0A94E2F7842B8C93CA
:1010A0008BC0A1E3B0E0E1E3F0E08081482F8A81CA
:1010B000282F30E081E090E0022E02C0880F991FB7
:1010C0000A94E2F7842B8C9377C08B81813009F0EE
:1010D00073C08981282F30E03D832C838C819D81D2
:1010E0008130910559F12C813D81223031052CF45C
:1010F0008C819D81009769F05FC02C813D812230F9
:10110000310589F18C819D818330910509F440C0BE
:1011100053C0AAE3B0E0EAE3F0E08081482F8A817F
:10112000282F30E081E090E0022E02C0880F991F46
:101130000A94E2F7809584238C933EC0A7E3B0E045
:10114000E7E3F0E08081482F8A81282F30E081E0BA
:1011500090E0022E02C0880F991F0A94E2F7809552
:1011600084238C9329C0A4E3B0E0E4E3F0E0808121
:10117000482F8A81282F30E081E090E0022E02C0C3
:10118000880F991F0A94E2F7809584238C9314C0EA
:10119000A1E3B0E0E1E3F0E08081482F8A81282FCD
:1011A00030E081E090E0022E02C0880F991F0A947F
:1011B000E2F7809584238C9327960FB6F894DEBFD0
:1011C0000FBECDBFCF91DF910895DF93CF93CDB701
:1011D000DEB727970FB6F894DEBF0FBECDBF898369
:1011E0006A834B838B81882309F06FC08981282F04
:1011F00030E03F832E838E819F818130910549F1BC
:101200002E813F81223031052CF48E819F81009701
:1012100061F0D2C02E813F812230310571F18E8183
:101220009F8183309105E9F1C7C0ABE3B0E0EBE308
:10123000F0E08081482F8A81282F30E081E090E023
:10124000022E02C0880F991F0A94E2F7842B8C9318
:10125000B3C0A8E3B0E0E8E3F0E08081482F8A81E2
:10126000282F30E081E090E0022E02C0880F991F05
:101270000A94E2F7842B8C939FC0A5E3B0E0E5E3EA
:10128000F0E08081482F8A81282F30E081E090E0D3
:10129000022E02C0880F991F0A94E2F7842B8C93C8
:1012A0008BC0A2E3B0E0E2E3F0E08081482F8A81C6
:1012B000282F30E081E090E0022E02C0880F991FB5
:1012C0000A94E2F7842B8C9377C08B81813009F0EC
:1012D00073C08981282F30E03D832C838C819D81D0
:1012E0008130910559F12C813D81223031052CF45A
:1012F0008C819D81009769F05FC02C813D812230F7
:10130000310589F18C819D818330910509F440C0BC
:1013100053C0ABE3B0E0EBE3F0E08081482F8A817B
:10132000282F30E081E090E0022E02C0880F991F44
:101330000A94E2F7809584238C933EC0A8E3B0E042
:10134000E8E3F0E08081482F8A81282F30E081E0B7
:1013500090E0022E02C0880F991F0A94E2F7809550
:1013600084238C9329C0A5E3B0E0E5E3F0E080811D
:10137000482F8A81282F30E081E090E0022E02C0C1
:10138000880F991F0A94E2F7809584238C9314C0E8
:10139000A2E3B0E0E2E3F0E08081482F8A81282FC9
:1013A00030E081E090E0022E02C0880F991F0A947D
:1013B000E2F7809584238C9327960FB6F894DEBFCE
:1013C0000FBECDBFCF91DF910895DF93CF9300D0B3
:1013D00000D0CDB7DEB789836A838981282F30E0BA
:1013E0003C832B838B819C818130910549F12B813A
:1013F0003C81223031052CF48B819C81009761F077
:101400005AC02B813C812230310571F18B819C8146
:1014100083309105E9F14FC0ABE3B0E0EBE3F0E0DE
:101420008081482F8A81282F30E081E090E0022ED1
:1014300002C0880F991F0A94E2F784278C933BC05F
:10144000A8E3B0E0E8E3F0E08081482F8A81282F0C
:1014500030E081E090E0022E02C0880F991F0A94CC
:10146000E2F784278C9327C0A5E3B0E0E5E3F0E042
:101470008081482F8A81282F30E081E090E0022E81
:1014800002C0880F991F0A94E2F784278C9313C037
:10149000A2E3B0E0E2E3F0E08081482F8A81282FC8
:1014A00030E081E090E0022E02C0880F991F0A947C
:1014B000E2F784278C930F900F900F900F90CF91AD
:1014C000DF910895DF93CF9300D000D00F92CDB776
:1014D000DEB78A836B838A81282F30E03D832C839B
:1014E0004C815D814130510541F18C819D8182307B
:1014F000910534F42C813D812115310561F052C0F4
:101500004C815D814230510551F18C819D81833048
:101510009105B9F147C0E9E3F0E08081282F30E080
:101520008B81882F90E0A90102C0559547958A9537
:10153000E2F7CA018170898335C0E6E3F0E080817B
:10154000282F30E08B81882F90E0A90102C05595AB
:1015500047958A95E2F7CA018170898323C0E3E346
:10156000F0E08081282F30E08B81882F90E0A90166
:1015700002C0559547958A95E2F7CA018170898323
:1015800011C0E0E3F0E08081282F30E08B81882FCC
:1015900090E0A90102C0559547958A95E2F7CA01E6
:1015A0008170898389810F900F900F900F900F9019
:1015B000CF91DF910895DF93CF9300D000D0CDB7C6
:1015C000DEB789836A838981282F30E03C832B83AF
:1015D0008B819C8181309105D1F02B813C8122301F
:1015E00031052CF48B819C81009761F01EC02B810A
:1015F0003C812230310581F08B819C8183309105C3
:1016000081F013C0EAE3F0E08A8180830EC0E7E353
:10161000F0E08A81808309C0E4E3F0E08A8180837E
:1016200004C0E1E3F0E08A8180830F900F900F9077
:101630000F90CF91DF910895DF93CF9300D000D02A
:10164000CDB7DEB789836A838981282F30E03C8358
:101650002B838B819C8181309105D1F02B813C8142
:10166000223031052CF48B819C81009761F01EC0E3
:101670002B813C812230310581F08B819C8183302C
:10168000910581F013C0EBE3F0E08A8180830EC006
:10169000E8E3F0E08A81808309C0E5E3F0E08A8135
:1016A000808304C0E2E3F0E08A8180830F900F9092
:1016B0000F900F90CF91DF910895DF93CF93CDB727
:1016C000DEB780E06FEF0E94DB0ACF91DF910895D3
:1016D000DF93CF930F92CDB7DEB7898389818823BB
:1016E00031F480E067E040E00E94E50808C08981AD
:1016F000813029F480E067E041E00E94E5080F9026
:10170000CF91DF910895DF93CF93CDB7DEB76F9779
:101710000FB6F894DEBF0FBECDBF8D8BCE01019604
:101720009F8B8E8BEAE7F0E0F98FE88FFAE0FA8F73
:10173000E88DF98D0080888D998D0196998F888F1D
:10174000EE89FF8900828E899F8901969F8B8E8BFF
:101750009A8D91509A8FEA8DEE2351F7CE010B9618
:101760009C8F8B8FE0E7F0E0FE8FED8FFAE0FF8F2C
:10177000ED8DFE8D00808D8D9E8D01969E8F8D8FBF
:10178000EB8DFC8D00828B8D9C8D01969C8F8B8FB9
:101790009F8D91509F8FEF8DEE2351F78D89282FCC
:1017A00030E0CE010B96FC01E20FF31F908180E048
:1017B000692F0E941C0B6F960FB6F894DEBF0FBE08
:1017C000CDBFCF91DF910895DF93CF93CDB7DEB733
:1017D000A0970FB6F894DEBF0FBECDBFCE01039623
:1017E000988F8F8BEEE8F0E0FA8FE98FFAE0FB8FAD
:1017F000E98DFA8D0080898D9A8D01969A8F898F57
:10180000EF89F88D00828F89988D0196988F8F8B44
:101810009B8D91509B8FEB8DEE2351F7CE010D9652
:101820009D8F8C8FE4E8F0E0FF8FEE8FFAE0F8A355
:10183000EE8DFF8D00808E8D9F8D01969F8F8E8FF8
:10184000EC8DFD8D00828C8D9D8D01969D8F8C8FF2
:1018500098A1915098A3E8A1EE2351F71A8210C0E5
:101860008A81282F30E0CE010D96FC01E20FF31F94
:10187000908180E0692F0E941C0B8A818F5F8A8390
:101880008A818A3068F3A0960FB6F894DEBF0FBE47
:10189000CDBFCF91DF910895DF93CF9300D000D0DB
:1018A000CDB7DEB769837A838B839C838B819981E3
:1018B000692F40E00E94E5078B819A81692F40E003
:1018C0000E94E5078B819C81692F40E00E94E5071B
:1018D0000F900F900F900F90CF91DF910895DF93AD
:1018E000CF9300D000D0CDB7DEB769837A838B83E6
:1018F0009C838B819981692F40E00E94E5088B8150
:101900009A81692F41E00E94E5080F900F900F9097
:101910000F90CF91DF910895DF93CF93CDB7DEB7CE
:1019200028970FB6F894DEBF0FBECDBF69837A83C8
:101930008B839C832D833E834F8358878B81998132
:10194000692F40E00E94E5088F819E81692F41E068
:101950000E94E5088F819D81692F41E00E94E50882
:1019600028960FB6F894DEBF0FBECDBFCF91DF91A2
:101970000895DF93CF93CDB7DEB728970FB6F894CD
:10198000DEBF0FBECDBF69837A838B839C832D839B
:101990003E834F8358878F819D81692F40E00E944D
:1019A000E5088B819A81692F41E00E94E5088B81CF
:1019B0009981692F41E00E94E50828960FB6F894B6
:1019C000DEBF0FBECDBFCF91DF910895DF93CF93E0
:1019D00000D000D0CDB7DEB769837A838B839C8338
:1019E0008B819981692F41E00E94E5088B819A8162
:1019F000692F40E00E94E5080F900F900F900F9024
:101A0000CF91DF910895DF93CF9300D000D0CDB771
:101A1000DEB769837A838B839C838B819981692F5D
:101A200041E00E94E5088B819A81692F41E00E9484
:101A3000E5080F900F900F900F90CF91DF910895D0
:101A4000DF93CF9300D000D000D0CDB7DEB769834D
:101A50007A838B839C835E834D838C81843039F4BD
:101A60000E9448078D819E810E94810713C08C814E
:101A7000853039F40E9448078D819E810E946A0753
:101A800009C08C81833031F40E9426078D819E81AC
:101A90000E94380726960FB6F894DEBF0FBECDBF62
:101AA000CF91DF910895DF93CF9300D0CDB7DEB70C
:101AB00089836A8389816A8140E00E94E5070F90EB
:101AC0000F90CF91DF910895DF93CF9300D0CDB7E2
:101AD000DEB789836A8389816A8140E00E94E508D4
:101AE0000F900F90CF91DF910895DF93CF9300D0A7
:101AF000CDB7DEB789836A8389816A8141E00E941C
:101B0000E5080F900F90CF91DF910895DF93CF9369
:101B100000D0CDB7DEB789836A8389816A810E944C
:101B2000E5090F900F90CF91DF910895DF93CF9348
:101B3000CDB7DEB72F970FB6F894DEBF0FBECDBF7F
:101B40008F8780E060E041E00E94E50880E061E08E
:101B500041E00E94E50883E06F850E941C0B80E055
:101B600062E040E00E94E50880E090E0A0E0B0E4A0
:101B70008B879C87AD87BE876B857C858D859E8591
:101B800020E030E84BE355E40E941F02DC01CB016A
:101B90008F839887A987BA876F81788589859A8589
:101BA00020E030E040E85FE30E94250488232CF425
:101BB00081E090E09E838D833FC06F817885898529
:101BC0009A8520E03FEF4FE757E40E94C5031816BF
:101BD0004CF56B857C858D859E8520E030E040E26C
:101BE00051E40E941F02DC01CB01BC01CD010E9427
:101BF0004900DC01CB019E838D830FC08CE291E014
:101C00009C838B838B819C810197F1F79C838B83D1
:101C10008D819E8101979E838D838D819E8100970A
:101C200069F714C06F81788589859A850E9449007B
:101C3000DC01CB019E838D838D819E819A83898374
:101C400089819A810197F1F79A83898380E062E024
:101C500041E00E94E5082F960FB6F894DEBF0FBE54
:101C6000CDBFCF91DF910895DF93CF93CDB7DEB78E
:101C70002F970FB6F894DEBF0FBECDBF8F8780E0E1
:101C800060E040E00E94E50880E061E041E00E9401
:101C9000E50883E06F850E941C0B80E062E040E075
:101CA0000E94E50880E090E0A0E0B0E48B879C878C
:101CB000AD87BE876B857C858D859E8520E030E86D
:101CC0004BE355E40E941F02DC01CB018F83988710
:101CD000A987BA876F81788589859A8520E030E069
:101CE00040E85FE30E94250488232CF481E090E023
:101CF0009E838D833FC06F81788589859A8520E09A
:101D00003FEF4FE757E40E94C50318164CF56B856B
:101D10007C858D859E8520E030E040E251E40E9484
:101D20001F02DC01CB01BC01CD010E944900DC0196
:101D3000CB019E838D830FC08CE291E09C838B83CB
:101D40008B819C810197F1F79C838B838D819E8190
:101D500001979E838D838D819E81009769F714C0C2
:101D60006F81788589859A850E944900DC01CB01C5
:101D70009E838D838D819E819A83898389819A81B7
:101D80000197F1F79A83898380E062E041E00E9445
:101D9000E5082F960FB6F894DEBF0FBECDBFCF91EA
:101DA000DF910895DF93CF93CDB7DEB780E060E099
:101DB00040E00E94E50780E061E040E00E94E50726
:101DC00080E062E040E00E94E50783E06FEF0E9460
:101DD000DB0ACF91DF910895DF93CF93CDB7DEB7C4
:101DE000EE970FB6F894DEBF0FBECDBF80E090E057
:101DF000A0E2B2E48BAF9CAFADAFBEAF6BAD7CAD3C
:101E00008DAD9EAD20E030E84BE355E40E941F020B
:101E1000DC01CB018FAB98AFA9AFBAAF6FA978AD9A
:101E200089AD9AAD20E030E040E85FE30E942504F0
:101E300088232CF481E090E09EAB8DAB3FC06FA96E
:101E400078AD89AD9AAD20E03FEF4FE757E40E94AF
:101E5000C50318164CF56BAD7CAD8DAD9EAD20E085
:101E600030E040E251E40E941F02DC01CB01BC01E2
:101E7000CD010E944900DC01CB019EAB8DAB0FC0B0
:101E80008CE291E09CAB8BAB8BA99CA90197F1F7FD
:101E90009CAB8BAB8DA99EA901979EAB8DAB8DA9F9
:101EA0009EA9009769F714C06FA978AD89AD9AAD66
:101EB0000E944900DC01CB019EAB8DAB8DA99EA990
:101EC0009AAB89AB89A99AA90197F1F79AAB89AB2B
:101ED00088E30E94960D80E090E0A0E2B2E48DA736
:101EE0009EA7AFA7B8AB6DA57EA58FA598A920E04A
:101EF00030E040E850E40E941F02DC01CB0189A7DA
:101F00009AA7ABA7BCA769A57AA58BA59CA520E03D
:101F100030E040E85FE30E94250488231CF481E060
:101F200088A791C069A57AA58BA59CA520E030E083
:101F30004FE753E40E94C50318160CF07BC06DA553
:101F40007EA58FA598A920E030E04AE754E40E94DE
:101F50001903DC01CB018CA39DA3AEA3BFA36CA18D
:101F60007DA18EA19FA120E030E84BE355E40E94C3
:101F70001F02DC01CB0188A399A3AAA3BBA368A17C
:101F800079A18AA19BA120E030E040E85FE30E94B4
:101F9000250488232CF481E090E09F8F8E8F3FC032
:101FA00068A179A18AA19BA120E03FEF4FE757E408
:101FB0000E94C50318164CF56CA17DA18EA19FA1AE
:101FC00020E030E040E251E40E941F02DC01CB013E
:101FD000BC01CD010E944900DC01CB019F8F8E8F97
:101FE0000FC08CE291E09D8F8C8F8C8D9D8D019721
:101FF000F1F79D8F8C8F8E8D9F8D01979F8F8E8F88
:102000008E8D9F8D009769F724C068A179A18AA160
:102010009BA10E944900DC01CB019F8F8E8F8E8D8A
:102020009F8D9B8F8A8F8A8D9B8D0197F1F79B8F58
:102030008A8F0FC069A57AA58BA59CA50E9449002F
:10204000DC01CB0188A788A5898F898D8A95F1F756
:10205000898F8CE00E94960D80E090E0A0E2B2E4CF
:102060008D8B9E8BAF8BB88F6D897E898F89988D74
:1020700020E030E040E850E40E941F02DC01CB0188
:10208000898B9A8BAB8BBC8B69897A898B899C896C
:1020900020E030E040E85FE30E94250488231CF440
:1020A00081E0888B91C069897A898B899C8920E03D
:1020B00030E04FE753E40E94C50318160CF07BC0D4
:1020C0006D897E898F89988D20E030E04AE754E45D
:1020D0000E941903DC01CB018C879D87AE87BF87E7
:1020E0006C857D858E859F8520E030E84BE355E447
:1020F0000E941F02DC01CB0188879987AA87BB87D2
:10210000688579858A859B8520E030E040E85FE33B
:102110000E94250488232CF481E090E09F838E8325
:102120003FC0688579858A859B8520E03FEF4FE732
:1021300057E40E94C50318164CF56C857D858E8585
:102140009F8520E030E040E251E40E941F02DC0164
:10215000CB01BC01CD010E944900DC01CB019F8372
:102160008E830FC08CE291E09D838C838C819D8156
:102170000197F1F79D838C838E819F8101979F83C7
:102180008E838E819F81009769F724C06885798549
:102190008A859B850E944900DC01CB019F838E8349
:1021A0008E819F819B838A838A819B810197F1F72E
:1021B0009B838A830FC069897A898B899C890E9455
:1021C0004900DC01CB01888B8889898389818A95C4
:1021D000F1F7898381E00E94960DEE960FB6F89490
:1021E000DEBF0FBECDBFCF91DF910895DF93CF93B8
:1021F00000D00F92CDB7DEB79B838A8319820EC0C1
:102200008981282F30E08A819B81FC01E20FF31F36
:1022100080810E94340E89818F5F89838981282F74
:1022200030E08A819B81FC01E20FF31F80818823CB
:1022300039F70F900F900F90CF91DF910895DF93B2
:10224000CF93CDB7DEB72C970FB6F894DEBF0FBE95
:10225000CDBF9C878B878B859C859E012F5F3F4FD1
:10226000B9014AE050E00E94571CCE0101960E943D
:10227000F6102C960FB6F894DEBF0FBECDBFCF91EF
:10228000DF910895DF93CF9300D000D0CDB7DEB7B4
:1022900089838981282F30E03C832B838B819C812B
:1022A0008830910509F470C02B813C8129303105BB
:1022B0005CF58B819C818430910509F459C02B8198
:1022C0003C81253031059CF48B819C8182309105C5
:1022D00009F448C02B813C81233031050CF045C006
:1022E0008B819C818130910509F439C068C02B81B4
:1022F0003C812630310509F441C08B819C818730B7
:1023000091050CF03EC037C02B813C812C3031054B
:1023100009F446C08B819C818D3091055CF42B8142
:102320003C812A303105B1F18B819C818B30910544
:10233000A4F52DC02B813C812E303105B9F18B8164
:102340009C818E3091057CF12B813C812F303105B1
:1023500081F18B819C818031910571F130C091E3D5
:102360009A832FC022E32A832CC033E33A8329C007
:1023700081E48A8326C094E39A8323C025E32A83D9
:1023800020C036E33A831DC082E48A831AC097E3F3
:102390009A8317C028E32A8314C039E33A8311C013
:1023A00083E48A830EC09AE29A830BC020E32A83D7
:1023B00008C033E23A8305C084E48A8302C095E210
:1023C0009A838A810F900F900F900F90CF91DF9199
:1023D0000895DF93CF930F92CDB7DEB789838981BC
:1023E0006FE00E94DB0A898160EF0E941C0B0F9056
:1023F000CF91DF910895DF93CF93CDB7DEB762978A
:102400000FB6F894DEBF0FBECDBF898B188AA8C067
:102410008889282F30E081E090E002C0880F991F62
:102420002A95E2F7982F90958989692F0E941C0BB5
:102430001F868FC08F85982F9C5F8989692F0E9486
:10244000620A882309F082C080E090E0A0EFB1E446
:102450008B879C87AD87BE876B857C858D859E85A8
:1024600020E030E84BE355E40E941F02DC01CB0181
:102470008F839887A987BA876F81788589859A85A0
:1024800020E030E040E85FE30E94250488232CF43C
:1024900081E090E09E838D833FC06F817885898540
:1024A0009A8520E03FEF4FE757E40E94C5031816D6
:1024B0004CF56B857C858D859E8520E030E040E283
:1024C00051E40E941F02DC01CB01BC01CD010E943E
:1024D0004900DC01CB019E838D830FC08CE291E02B
:1024E0009C838B838B819C810197F1F79C838B83E9
:1024F0008D819E8101979E838D838D819E81009722
:1025000069F714C06F81788589859A850E94490092
:10251000DC01CB019E838D838D819E819A8389838B
:1025200089819A810197F1F79A8389838F85882F12
:1025300090E0880F991F880F991F982F8889890F1D
:102540008F5F0E9442118A8B8A890EC08F858F5FB0
:102550008F878F85843008F46DCF88898F5F888B53
:102560008889843008F454CF62960FB6F894DEBFA1
:102570000FBECDBFCF91DF910895DF93CF9300D0F1
:10258000CDB7DEB789836A8389816A8141E00E9481
:10259000E5070F900F90CF91DF910895DF93CF93D0
:1025A00000D000D0CDB7DEB78A836B838A816B8180
:1025B0000E94620A89838981882319F481E08C83CF
:1025C00001C01C828C810F900F900F900F90CF91C3
:1025D000DF910895DF93CF9300D0CDB7DEB7898325
:1025E0006A8389816A8141E00E94E50789816A8165
:1025F00040E00E94E5080F900F90CF91DF91089581
:10260000DF93CF9300D0CDB7DEB789836A8389810A
:102610006A810E94620A0F900F90CF91DF91089516
:10262000DF93CF9300D0CDB7DEB789836A838981EA
:102630006A810E94620A0F900F90CF91DF910895F6
:10264000DF93CF93CDB7DEB70E94D7070E94EE0687
:10265000EBE3F0E08081E9E3F0E09081692F0E94F4
:10266000530DEBE3F0E08081E9E3F0E09081692F26
:102670000E94640DF6CF1F920F920FB60F92112495
:102680002F933F934F935F936F937F938F939F937A
:10269000AF93BF93EF93FF93DF93CF93CDB7DEB7A5
:1026A0002E97DEBFCDBF8091980090919900019642
:1026B0009093990080939800809198009091990050
:1026C0002CE48C34920709F083C0E2E5F0E080EC62
:1026D0008083EBE3F0E08081E9E3F0E09081692F13
:1026E0000E94750D80E090E0AAEFB3E48B879C8791
:1026F000AD87BE876B857C858D859E8520E030E823
:102700004BE355E40E941F02DC01CB018F839887C5
:10271000A987BA876F81788589859A8520E030E01E
:1027200040E85FE30E94250488232CF481E090E0D8
:102730009E838D833FC06F81788589859A8520E04F
:102740003FEF4FE757E40E94C50318164CF56B8521
:102750007C858D859E8520E030E040E251E40E943A
:102760001F02DC01CB01BC01CD010E944900DC014C
:10277000CB019E838D830FC08CE291E09C838B8381
:102780008B819C810197F1F79C838B838D819E8146
:1027900001979E838D838D819E81009769F714C078
:1027A0006F81788589859A850E944900DC01CB017B
:1027B0009E838D838D819E819A83898389819A816D
:1027C0000197F1F79A8389831092990010929800EB
:1027D0002E96DEBFCDBFCF91DF91FF91EF91BF91DC
:1027E000AF919F918F917F916F915F914F913F91A9
:1027F0002F910F900FBE0F901F9018951F920F9260
:102800000FB60F9211242F933F934F935F936F93C3
:102810007F938F939F93AF93BF93EF93FF93DF9338
:10282000CF93CDB7DEB72E97DEBFCDBF80919A0094
:1028300090919B00019690939B0080939A008091C9
:102840009A0090919B002FE0803A920709F082C095
:10285000E2E5F0E01082EBE3F0E08081E9E3F0E014
:102860009081692F0E94750D80E090E0AAEFB3E49B
:102870008B879C87AD87BE876B857C858D859E8584
:1028800020E030E84BE355E40E941F02DC01CB015D
:102890008F839887A987BA876F81788589859A857C
:1028A00020E030E040E85FE30E94250488232CF418
:1028B00081E090E09E838D833FC06F81788589851C
:1028C0009A8520E03FEF4FE757E40E94C5031816B2
:1028D0004CF56B857C858D859E8520E030E040E25F
:1028E00051E40E941F02DC01CB01BC01CD010E941A
:1028F0004900DC01CB019E838D830FC08CE291E007
:102900009C838B838B819C810197F1F79C838B83C4
:102910008D819E8101979E838D838D819E810097FD
:1029200069F714C06F81788589859A850E9449006E
:10293000DC01CB019E838D838D819E819A83898367
:1029400089819A810197F1F79A83898310929B007C
:1029500010929A002E96DEBFCDBFCF91DF91FF91EE
:10296000EF91BF91AF919F918F917F916F915F9107
:102970004F913F912F910F900FBE0F901F90189580
:10298000DF93CF93CDB7DEB72F970FB6F894DEBFA6
:102990000FBECDBF0E94EE06E8E3F0E0808160E06C
:1029A0000E94DB0A1F8675C080E090E0AAE7B4E4CD
:1029B0008B879C87AD87BE876B857C858D859E8543
:1029C00020E030E84BE355E40E941F02DC01CB011C
:1029D0008F839887A987BA876F81788589859A853B
:1029E00020E030E040E85FE30E94250488232CF4D7
:1029F00081E090E09E838D833FC06F8178858985DB
:102A00009A8520E03FEF4FE757E40E94C503181670
:102A10004CF56B857C858D859E8520E030E040E21D
:102A200051E40E941F02DC01CB01BC01CD010E94D8
:102A30004900DC01CB019E838D830FC08CE291E0C5
:102A40009C838B838B819C810197F1F79C838B8383
:102A50008D819E8101979E838D838D819E810097BC
:102A600069F714C06F81788589859A850E9449002D
:102A7000DC01CB019E838D838D819E819A83898326
:102A800089819A810197F1F79A8389838F858F5F76
:102A90008F878F85853608F487CF84CFDF93CF93D8
:102AA00000D00F92CDB7DEB781E060E00E94BD128A
:102AB00081E061E00E94BD1281E062E00E94BD12EF
:102AC0001092680081E08093690083E080936A003F
:102AD00084E080936B0082E080936C0083E08093BD
:102AE0006D0083E080936E0085E080936F0080919D
:102AF000680090916900A0916A00B0916B00BC01E0
:102B0000CD010E944C0C80916C0090916D00A091C1
:102B10006E00B0916F00BC01CD010E944C0C809101
:102B2000680090916900A0916A00B0916B00BC01AF
:102B3000CD0148EC50E00E94200D80916C009091F6
:102B40006D00A0916E00B0916F00BC01CD0148EC0A
:102B500050E00E94200D8091680090916900A09142
:102B60006A00B0916B00BC01CD0148EC50E00E94BE
:102B7000200D80916C0090916D00A0916E00B0913D
:102B80006F00BC01CD0148EC50E00E94200D81E0B7
:102B900060E00E94CE12898381E062E00E94CE1242
:102BA0008A8381E061E00E94CE128B838981882331
:102BB000A1F08091680090916900A0916A00B091A5
:102BC0006B0020916C0030916D0040916E0050912F
:102BD0006F00BC01CD010E94B90C8B818823A9F044
:102BE0008091680090916900A0916A00B0916B009B
:102BF00020916C0030916D0040916E0050916F00FB
:102C0000BC01CD010E948C0CA6CF809168009091F0
:102C10006900A0916A00B0916B00BC01CD010E94D7
:102C20006F0C80916C0090916D00A0916E00B0913E
:102C30006F00BC01CD010E946F0C8DCFDF93CF934D
:102C4000CDB7DEB760970FB6F894DEBF0FBECDBF2D
:102C50000E94480788EC90E0988B8F8783C08F850F
:102C600098890E946A078F8598890E9481078F85BD
:102C700098890E94380780E090E0A0EAB1E48B8751
:102C80009C87AD87BE876B857C858D859E8520E082
:102C900030E84BE355E40E941F02DC01CB018F8337
:102CA0009887A987BA876F81788589859A8520E07A
:102CB00030E040E85FE30E94250488232CF481E0A3
:102CC00090E09E838D833FC06F81788589859A854A
:102CD00020E03FEF4FE757E40E94C50318164CF57C
:102CE0006B857C858D859E8520E030E040E251E457
:102CF0000E941F02DC01CB01BC01CD010E944900F2
:102D0000DC01CB019E838D830FC08CE291E09C831C
:102D10008B838B819C810197F1F79C838B838D81C1
:102D20009E8101979E838D838D819E81009769F797
:102D300014C06F81788589859A850E944900DC01DD
:102D4000CB019E838D838D819E819A838983898126
:102D50009A810197F1F79A8389838F8598890197E2
:102D6000988B8F878F8598898F3F910508F477CF4F
:102D700071CFDF93CF93CDB7DEB72E970FB6F89410
:102D8000DEBF0FBECDBF81E063E00E94530D81E046
:102D900063E00E94860D80E090E0AAEFB3E48B87A9
:102DA0009C87AD87BE876B857C858D859E8520E061
:102DB00030E84BE355E40E941F02DC01CB018F8316
:102DC0009887A987BA876F81788589859A8520E059
:102DD00030E040E85FE30E94250488232CF481E082
:102DE00090E09E838D833FC06F81788589859A8529
:102DF00020E03FEF4FE757E40E94C50318164CF55B
:102E00006B857C858D859E8520E030E040E251E435
:102E10000E941F02DC01CB01BC01CD010E944900D0
:102E2000DC01CB019E838D830FC08CE291E09C83FB
:102E30008B838B819C810197F1F79C838B838D81A0
:102E40009E8101979E838D838D819E81009769F776
:102E50009ECF6F81788589859A850E944900DC0123
:102E6000CB019E838D838D819E819A838983898105
:102E70009A810197F1F79A83898389CFDF93CF9362
:102E8000CDB7DEB70E94EE061092A00081E08093DD
:102E9000A10081E08093A20083E08093A300809151
:102EA000A0009091A100A091A200B091A300BC014C
:102EB000CD010E944C0C80919C0090919D00A091AE
:102EC0009E00B0919F00BC01CD010E944C0C8091EE
:102ED000A2009091A300692F40E00E94E508809134
:102EE000A0009091A100A091A200B091A300BC010C
:102EF000CD010E946F0CEBCFDF93CF93CDB7DEB740
:102F00000E9485170E948C17FFCFDF93CF93CDB718
:102F1000DEB7CF91DF910895DF93CF93CDB7DEB7C2
:102F20008091680090916900A0916A00B0916B0057
:102F3000BC01CD010E944C0C80916C0090916D0001
:102F4000A0916E00B0916F00BC01CD010E944C0CAD
:102F5000CF91DF910895DF93CF9300D0CDB7DEB747
:102F60000F900F90CF91DF910895DF93CF930F9241
:102F7000CDB7DEB70E944F060E94EC0E0E94D20E23
:102F80000E94C306898380E80E94340E8981882FBD
:102F900090E00E941F11F4CFDF93CF93CDB7DEB73F
:102FA000FFCF1F920F920FB60F921124DF93CF9392
:102FB000CDB7DEB7CF91DF910F900FBE0F901F906E
:102FC00018951F920F920FB60F921124DF93CF9393
:102FD000CDB7DEB7CF91DF910F900FBE0F901F904E
:102FE00018951F920F920FB60F921124DF93CF9373
:102FF000CDB7DEB7CF91DF910F900FBE0F901F902E
:103000001895DF93CF930F92CDB7DEB782E00E9481
:10301000E9110E94D20E0E94EC0E81E00E94960DF2
:103020000E94FB11898380E80E94960D89810E948D
:10303000340EF6CFDF93CF930F92CDB7DEB70E9459
:10304000D20E0E94EC0E81E00E94960D80E80E9454
:10305000960D19820BC08AE50E94340E8981882F53
:1030600090E00E941F1189818F5F898389818A3056
:1030700090F3ECCFDF93CF93CDB7DEB72F970FB69A
:10308000F894DEBF0FBECDBF0E945D0B80E00E94B2
:10309000680B1F8678C08F850E94830B80E090E0CC
:1030A000AAE7B4E48B879C87AD87BE876B857C8558
:1030B0008D859E8520E030E84BE355E40E941F0299
:1030C000DC01CB018F839887A987BA876F817885C8
:1030D00089859A8520E030E040E85FE30E9425047E
:1030E00088232CF481E090E09E838D833FC06F8124
:1030F000788589859A8520E03FEF4FE757E40E9465
:10310000C50318164CF56B857C858D859E8520E062
:1031100030E040E251E40E941F02DC01CB01BC011F
:10312000CD010E944900DC01CB019E838D830FC03D
:103130008CE291E09C838B838B819C810197F1F7DA
:103140009C838B838D819E8101979E838D838D814E
:103150009E81009769F714C06F81788589859A856B
:103160000E944900DC01CB019E838D838D819E816D
:103170009A83898389819A810197F1F79A83898358
:103180008F858F5F8F878F858A3008F484CF81CFBA
:10319000DF93CF930F92CDB7DEB781E060E00E945E
:1031A000EA1280E060E00E94530D81E060E00E943E
:1031B000001389838981813029F480E060E00E94D6
:1031C000750DF3CF8981882381F780E060E00E944C
:1031D000640DEBCFDF93CF930F92CDB7DEB781E0D5
:1031E00060E00E94EA1280E060E00E94530D81E0FE
:1031F00060E00E94EA1280E060E00E94530D81E0EE
:1032000060E00E94EA1280E060E00E94530D81E0DD
:1032100060E00E94001389838981813029F480E075
:1032200060E00E94750DF3CF8981882381F780E0EB
:1032300060E00E94640DEBCFDF93CF93CDB7DEB794
:103240006C970FB6F894DEBF0FBECDBF80E060E094
:103250000E94530D80E060E00E94640D80E090E0E9
:10326000AAE7B4E4898F9A8FAB8FBC8F698D7A8D72
:103270008B8D9C8D20E030E84BE355E40E941F02CB
:10328000DC01CB018D8B9E8BAF8BB88F6D897E89D6
:103290008F89988D20E030E040E85FE30E942504AC
:1032A00088232CF481E090E09C8B8B8B3FC06D8950
:1032B0007E898F89988D20E03FEF4FE757E40E9489
:1032C000C50318164CF5698D7A8D8B8D9C8D20E089
:1032D00030E040E251E40E941F02DC01CB01BC015E
:1032E000CD010E944900DC01CB019C8B8B8B0FC070
:1032F0008CE291E09A8B898B89899A890197F1F701
:103300009A8B898B8B899C8901979C8B8B8B8B8962
:103310009C89009769F714C06D897E898F89988D83
:103320000E944900DC01CB019C8B8B8B8B899C8993
:10333000988B8F878F8598890197F1F7988B8F8766
:1033400080E060E00E94750D80E090E0AAE7B4E4C0
:103350008B879C87AD87BE876B857C858D859E8599
:1033600020E030E84BE355E40E941F02DC01CB0172
:103370008F839887A987BA876F81788589859A8591
:1033800020E030E040E85FE30E94250488232CF42D
:1033900081E090E09E838D833FC06F817885898531
:1033A0009A8520E03FEF4FE757E40E94C5031816C7
:1033B0004CF56B857C858D859E8520E030E040E274
:1033C00051E40E941F02DC01CB01BC01CD010E942F
:1033D0004900DC01CB019E838D830FC08CE291E01C
:1033E0009C838B838B819C810197F1F79C838B83DA
:1033F0008D819E8101979E838D838D819E81009713
:1034000069F728CF6F81788589859A850E94490060
:10341000DC01CB019E838D838D819E819A8389837C
:1034200089819A810197F1F79A83898313CFDF937A
:10343000CF93CDB7DEB76E970FB6F894DEBF0FBE51
:10344000CDBF80E060E00E94530D80E061E00E940B
:10345000530D80E062E00E94530D80E063E00E9423
:10346000530D80E064E00E94530D80E065E00E940F
:10347000530D80E066E00E94530D80E067E00E94FB
:10348000530D1E8E79C080E06E8D0E94640D80E029
:1034900090E0AAE7B4E4898F9A8FAB8FBC8F698DD7
:1034A0007A8D8B8D9C8D20E030E84BE355E40E94B3
:1034B0001F02DC01CB018D8B9E8BAF8BB88F6D898A
:1034C0007E898F89988D20E030E040E85FE30E949C
:1034D000250488232CF481E090E09C8B8B8B3FC0EB
:1034E0006D897E898F89988D20E03FEF4FE757E403
:1034F0000E94C50318164CF5698D7A8D8B8D9C8DB5
:1035000020E030E040E251E40E941F02DC01CB01E8
:10351000BC01CD010E944900DC01CB019C8B8B8B4F
:103520000FC08CE291E09A8B898B89899A890197E7
:10353000F1F79A8B898B8B899C8901979C8B8B8B5C
:103540008B899C89009769F714C06D897E898F8962
:10355000988D0E944900DC01CB019C8B8B8B8B8961
:103560009C89988B8F878F8598890197F1F7988B25
:103570008F878E8D8F5F8E8F8E8D883008F483CFEE
:1035800087E08D8F80E06D8D0E94750D80E090E06A
:10359000AAE7B4E48B879C87AD87BE876B857C8563
:1035A0008D859E8520E030E84BE355E40E941F02A4
:1035B000DC01CB018F839887A987BA876F817885D3
:1035C00089859A8520E030E040E85FE30E94250489
:1035D00088232CF481E090E09E838D833FC06F812F
:1035E000788589859A8520E03FEF4FE757E40E9470
:1035F000C50318164CF56B857C858D859E8520E06E
:1036000030E040E251E40E941F02DC01CB01BC012A
:10361000CD010E944900DC01CB019E838D830FC048
:103620008CE291E09C838B838B819C810197F1F7E5
:103630009C838B838D819E8101979E838D838D8159
:103640009E81009769F714C06F81788589859A8576
:103650000E944900DC01CB019E838D838D819E8178
:103660009A83898389819A810197F1F79A83898363
:103670008D8D81508D8F86CFDF93CF9300D00F92A9
:10368000CDB7DEB781E060E00E94BD1281E061E06D
:103690000E94BD1281E062E00E94BD12109268009B
:1036A00081E08093690083E080936A0084E08093E6
:1036B0006B0082E080936C0083E080936D0083E078
:1036C00080936E0085E080936F00809168009091F8
:1036D0006900A0916A00B0916B00BC01CD010E940D
:1036E0004C0C80916C0090916D00A0916E00B09197
:1036F0006F00BC01CD010E944C0C8091680090913C
:103700006900A0916A00B0916B00BC01CD0148EC4A
:1037100050E00E94200D80916C0090916D00A0916E
:103720006E00B0916F00BC01CD0148EC50E00E94EA
:10373000200D81E060E00E94CE12898381E062E08A
:103740000E94CE128A8381E061E00E94CE128B83B8
:103750008981882361F18091680090916900A0912E
:103760006A00B0916B00BC01CD010E94E60C809113
:103770006C0090916D00A0916E00B0916F00BC0143
:10378000CD010E94E60C8091680090916900A091A3
:103790006A00B0916B0020916C0030916D004091F7
:1037A0006E0050916F00BC01CD010E94B90C8B815D
:1037B000882369F18091680090916900A0916A0066
:1037C000B0916B00BC01CD010E94E60C80916C00B1
:1037D00090916D00A0916E00B0916F00BC01CD0181
:1037E0000E94E60C8091680090916900A0916A00A7
:1037F000B0916B0020916C0030916D0040916E0093
:1038000050916F00BC01CD010E948C0C76CF80914D
:10381000680090916900A0916A00B0916B00BC01B2
:10382000CD010E946F0C80916C0090916D00A09171
:103830006E00B0916F00BC01CD010E946F0C5DCF96
:103840002F923F924F925F926F927F928F929F92B0
:10385000AF92BF92CF92DF92EF92FF920F931F939E
:10386000CF93DF93CDB7DEB7CA1BDB0B0FB6F8944F
:10387000DEBF0FBECDBF09942A88398848885F848F
:103880006E847D848C849B84AA84B984C884DF8000
:10389000EE80FD800C811B81AA81B981CE0FD11DE4
:1038A0000FB6F894DEBF0FBECDBFED010895FB014A
:1038B0009F01E8944230C4F04532B4F44A3029F410
:1038C00097FB1EF4909581959F4F642F77270E9458
:1038D000881C805D8A330CF0895D8193CB01009751
:1038E000A1F716F45DE251931082C9010C94781C83
:1038F000DC01FC01672F71917723E1F7329704C057
:103900007C916D9370836291AE17BF07C8F30895E1
:10391000AA1BBB1B51E107C0AA1FBB1FA617B707F5
:1039200010F0A61BB70B881F991F5A95A9F7809511
:0C3930009095BC01CD010895F894FFCFE4
:10393C000000000000000000010200020102010270
:10394C00C0F9A4B0999282F880903F065B4F666DE7
:10395C007D077F6FC0F9A4B0999282F880903F06E2
:08396C005B4F666D7D077F6F64
:00000001FF
